:020000040800F2
:100000002804002005010008710A0008C50800083E
:10001000590A0008F10400088B15000800000000D0
:10002000000000000000000000000000750C000847
:100030000306000800000000350B00082D0D000825
:100040001F0100081F0100081F0100081F01000810
:100050001F0100081F0100081F0100081F01000800
:100060001F0100081F0100081F0100081F010008F0
:100070001F0100081F0100081F0100081F010008E0
:100080001F0100081F0100081F0100081F010008D0
:100090001F0100081F0100081F0100081F010008C0
:1000A0001F010008650F00081F0100081F0100085C
:1000B0001F010008F10F00081F0100081F010008C0
:1000C0001F0100081F0100081F0100081F01000890
:1000D0001F0100081F0100081F0100081F01000880
:1000E0001F0100081F0100081F010008DFF810D0E1
:1000F00000F0D2F800480047AB150008AFF30080CD
:10010000280400200648804706480047FEE7FEE72F
:10011000FEE7FEE7FEE7FEE7FEE7FEE7FEE7FEE7B7
:10012000310D0008ED00000880EA010210B502F070
:100130000043400022D04A001FD0010E01EB1261A3
:10014000C0F35600C2F3560240F4000042F400022D
:10015000A0FB022000047F39140400D0401C50EAA8
:10016000124001D44000491EC2B20C0604EBD0106C
:10017000401C4008802A02D003E0002010BD20F07F
:100180000100002900DA0020184310BD30B480EAD5
:10019000010202F0004530F0004221F0004013D08F
:1001A00090B1C30DD40DC2F31601C0F31600E41ACA
:1001B00041F4000140F400027D34914201D3641CFB
:1001C00000E04900002C02DA30BC002070474FF4F8
:1001D00000000023914201D3891A034340084FEAEB
:1001E0004101F7D151B1914202D14FF0004105E0F8
:1001F00002D24FF0010101E06FF0010103EBC450A6
:10020000284430BC00F010B896230022114600F0BC
:1002100014B80000002801DBC0F10040002901DB18
:10022000C1F10041814270470029A8BF7047401CBE
:10023000490008BF20F00100704710B4B0FA80FCFC
:1002400000FA0CF050EA010404BF10BC704749B139
:10025000CCF1200421FA04F411FA0CF118BF0121A9
:1002600021430843A3EB0C01CB1D4FEA00614FEA89
:10027000102042BF002010BC704700EBC350104458
:100280000029A4BF10BC7047401C490008BF20F0E3
:10029000010010BC70470000064C074D06E0E06806
:1002A00040F0010394E8070098471034AC42F6D3BD
:1002B000FFF720FFE015000800160008002904D011
:1002C000816841F0010181607047816821F001017E
:1002D0008160704710B500F07DF800F033F800F051
:1002E00053F90B4C01212046FFF7E8FF204600F0B0
:1002F000DDF8204600F043F80028FAD1204600F04F
:10030000DAF8204600F034F80028FAD110BD0000D9
:1003100000240140002904D0816841F4807181608B
:100320007047816821F4807181607047002904D092
:10033000816841F4801181607047816821F48011E7
:100340008160704708B50121082000F01BFC684659
:1003500000F097FA0120ADF8000000208DF80300AE
:100360006946024800F038FA08BD0000000C014060
:10037000014600208968490700D5012070470146E1
:1003800000208968090700D50120704710B5426830
:100390000E4B1A400C790B6842EA04221343436067
:1003A00082680B4B1A40D1E9024323434C7942EA5D
:1003B000440213438360C26A22F47002097C491E1E
:1003C000C9B242EA0151C16210BD0000FFFEF0FF58
:1003D000FDF7F1FF10B586B00121480200F0D2FB15
:1003E0004FF4404000F0A8FB01A800F069F800209D
:1003F00001908DF808008DF809004FF40021039159
:10040000049001208DF814000A4C01A92046FFF742
:10041000BDFF01212046FFF789FF002301220821AB
:10042000204600F009F801212046FFF773FF06B0CF
:1004300010BD00000024014070B5072609290AD923
:10044000C568A1F10A0404EB4404A640B543A340E7
:100450001D43C56007E0056901EB4104A640B543B3
:10046000A3401D4305611F23072A09D2446B521E76
:1004700002EB820293409C4391400C43446370BD65
:100480000D2A09D2046BD21F02EB820293409C43D7
:1004900091400C43046370BDC46A0D3A02EB8202C2
:1004A00093409C4391400C43C46270BD816841F00D
:1004B000080181607047816841F0040181607047E4
:1004C00000210160017141718160C16001210174ED
:1004D0007047000010B500F0DDFE00F0CAFABDE87C
:1004E00010400121014800F0A6BD000000040040BA
:1004F000FEE70000C10002D50249086070470249CA
:10050000486070470404024000000240002904D003
:10051000016841F001010160704701684FF6FE7209
:10052000114001607047000002460020D10002D552
:100530000449096801E004490968114200D001201A
:1005400070470000000402400000024030B502681D
:1005500047F6F0739A430C6A8B682343D1E904454C
:100560002C4323438C692343CC6923434C6A2343A4
:100570008C6A234313430360CA6842600A6882603E
:100580004968C16030BD000010B58CB0012108463B
:1005900000F0DCFA01A800F027F81048019010489C
:1005A0000290002003900121049105900690090219
:1005B0000791890008912021099109020A910B9065
:1005C000084C01A92046FFF7C1FF0220FFF792FF68
:1005D00001212046FFF79AFF0CB010BD4C240140CA
:1005E0001800002008000240002101604160816085
:1005F000C160016141618161C161016241628162E9
:100600007047704710B500F045F92849264A274B36
:100610000C3190420DDC264A4FF48040106108886E
:10062000C00740D00022BDE810400121184600F06C
:100630008FBD204C204AA0420BDC1420107008888B
:10064000C00730D10122BDE810401146184600F025
:100650007FBD1A4CA0420BDA322010700888C00708
:1006600021D10122BDE810401146184600F070BDAE
:10067000134CA0420BDA4B2010700888C00712D12F
:100680000122BDE810401146184600F061BD64200B
:1006900010700888C00706D10122BDE8104011463D
:1006A000184600F055BD10BD0000D040002C0140A0
:1006B000001001400000E04020000020CDCCEC40C4
:1006C000CDCCFC4038B5684600F0DBF801210C20A9
:1006D00000F058FAC020ADF8000004248DF8034063
:1006E0006946064800F078F80320ADF800008DF860
:1006F00003406946024800F06FF838BD000C014025
:100700000008014010B500F005F8BDE81040FFF703
:10071000D9BF000070B586B00121042000F024FA92
:100720000121084600F020FA03A800F05FFE4FF612
:10073000FF75ADF810500024ADF80C40ADF80E4038
:10074000244E03A9304600F003FEADF81050ADF87A
:100750000C40F50403A9284600F0FAFD684600F0B5
:10076000EFFCADF80040ADF802400A21ADF80810EA
:100770006946304600F09EFC6946284600F09AFC27
:100780000420ADF800006946304600F093FC69464D
:10079000284600F08FFC00231A460321304600F063
:1007A00064FC002302220321284600F05EFC0021A5
:1007B000304600F0A3FD0121304600F03CFC002152
:1007C000284600F09BFD0121284600F034FC06B0CD
:1007D00070BD0000000800402DE9F0410022CC78F7
:1007E00004F00F03E40601D58C7823430C784FF016
:1007F0000F0714F0FF0F4FF0010C1CD005680CFA26
:1008000002F40E882640A64211D1960007FA06F897
:1008100025EA080503FA06F848EA0505CE78282EE9
:1008200002D0482E02D002E0446100E00461521C74
:10083000082AE4D305600A88FF2A1ED945680022E9
:1008400002F108060CFA06F40E882640A64210D1E2
:10085000960007FA06F825EA080503FA06F848EABA
:100860000505CE78282E00D14461CE78482E00D1DF
:100870000461521C082AE3D34560BDE8F0810161A0
:1008800070474FF6FF710180022181700421C17011
:100890007047000010B507480088FFF7B5FC06490F
:1008A000FFF774FC0549FFF73FFCBDE81040044921
:1008B000FFF73ABC1800002000F07F453333534067
:1008C00000003041FEE7000002480168491C016059
:1008D000704700001C00002038B50121102000F0F6
:1008E00051F9002000F0B2F96846FFF7CAFF4FF453
:1008F0008044ADF8004010208DF8030002208DF8F0
:100900000200054D69462846FFF766FF2146284646
:10091000FFF7B5FF38BD00000010014038B568464C
:10092000FFF7AFFF0121082000F02CF910208DF80F
:10093000030003208DF802004FF48040ADF8000062
:100940000D4C69462046FFF747FF4FF40041ADF8D4
:10095000001069462046FFF73FFF6114ADF8001014
:1009600069462046FFF738FFA114ADF8001069462C
:100970002046FFF731FF38BD000C0140F8B568464E
:10098000FFF77FFF0121042000F0FCF84FF4807096
:10099000ADF8000018258DF8035003248DF80240AF
:1009A000084E69463046FFF717FFF114ADF8001006
:1009B0008DF803508DF8024069463046FFF70CFF72
:1009C000F8BD00000008014030B587B004A800F071
:1009D0000DFD0121C80200F0D5F81E4D284600F09B
:1009E000C1FB40F60F60ADF814000024ADF81040D4
:1009F000ADF8124004A9284600F0AAFC684600F0B1
:100A00003FFC6021ADF800100121ADF80210ADF8F7
:100A10000640ADF808406946284600F0A9FB0821C9
:100A2000284600F0E9FB6946284600F0EBFB082168
:100A3000284600F01BFC0121284600F008FB01219C
:100A4000284600F0E9FA0121284600F0F4FA07B040
:100A500030BD0000002C0140FEE710B5FFF7B4FFE9
:100A6000FFF78CFF00F017F8BDE81040FFF756BF06
:100A7000704708B5002000901D218DF800100E2150
:100A80008DF801108DF8020001208DF803006846F2
:100A900000F014F808BD08B50020009019218DF869
:100AA00000100F218DF801108DF8020001208DF843
:100AB0000300684600F002F808BD000070B50F237F
:100AC000C27801260178002A1ED0144A126802F466
:100AD000E062C2F5E062120AC2F10404D340457834
:100AE000A54082781A402A43120101F1E02181F8E1
:100AF0000024007800F01F018E404009800000F1C2
:100B0000E020C0F8006170BD01F01F008640480978
:100B1000800000F1E020C0F8806170BD0CED00E0C5
:100B20000249084302490860704700000000FA05C6
:100B30000CED00E070470000034A516821F4404189
:100B4000014351607047000000100240054A00292F
:100B500003D051690143516170475169814351612B
:100B60007047000000100240054A002903D0D169F7
:100B70000143D1617047D1698143D1617047000061
:100B800000100240054A002903D091690143916198
:100B900070479169814391617047000000100240E5
:100BA00010B5264A516801F00C01254B002927D0C9
:100BB000042927D0082927D00360516801F0F001EB
:100BC0000909204B5C5C0168E1404160546804F411
:100BD000E064240A1C5D21FA04F48460546804F47F
:100BE0006054E40A1B5DD940C160526802F440427F
:100BF000920B144B1B1F9A5CB1FBF2F1016110BD0B
:100C00000360DAE70360D8E7516801F470115368B4
:100C100003F48033022404EB914133B153689B0306
:100C200007D5094B59430160C7E7074B594301609A
:100C3000C3E7034B59430160BFE7000000100240C7
:100C400000127A000400002000093D00084900223B
:100C50000A7001F82029012805D0042802D10520B6
:100C600081F820007047012081F8200070470000C3
:100C700020100240704700F001B800000CB50022BF
:100C8000019200922748016841F4803101604FF4DD
:100C9000A063016801F4003100910199491C0191A0
:100CA000009911B901999942F3D10168890302D5DC
:100CB0000121009100E000920099012930D11A49E8
:100CC0000A6842F010020A600A6822F003020A6011
:100CD0000A6842F002020A6041684160416841606E
:100CE000416841F480614160416821F47C114160B8
:100CF000416841F4E8114160016841F08071016090
:100D000001688901FCD5416821F003014160416817
:100D100041F0020141604168C1F381010229FAD129
:100D20000CBD00000010024000200240704700008F
:100D300010B50F48016841F00101016041680D4A9A
:100D40001140416001680C4A11400160016821F4C2
:100D500080210160416821F4FE0141604FF41F01D0
:100D60008160FFF788FF05494FF00060086010BD03
:100D7000001002400000FFF8FFFFF6FE08ED00E063
:100D800070B5048C24F001040484058B048C25F0D8
:100D9000F3054FF6FF7606EA031313432B43104A7D
:100DA00090420ED00F4A90420BD0B0F1804F08D045
:100DB0000D4A904205D00D4A904202D00C4A904212
:100DC00005D124F002020A4342F0010104E024F0BC
:100DD0000A020A4342F001010383018470BD00004E
:100DE000002C014000340140000400400008004095
:100DF000000C0040F0B5048C24F010040484068B31
:100E0000048C4FF6FF7505EA011726F4734605EAD0
:100E10000333334305EA02221A43104B98420ED0A3
:100E20000F4B98420BD0B0F1804F08D00D4B984239
:100E300005D00D4B984202D00C4B984205D124F0BE
:100E40002001394341F0100104E024F0A0030B43DA
:100E500043F0100102830184F0BD0000002C01402A
:100E6000003401400004004000080040000C004035
:100E7000F0B5048C24F480740484858B048C4FF6C4
:100E8000FF7707EA012625F0F30507EA031313436A
:100E90002B43104A90420ED00F4A90420BD0B0F133
:100EA000804F08D00D4A904205D00D4A904202D0A2
:100EB0000C4A904205D124F40071314341F4807111
:100EC00004E024F420620A4342F4807183830184A5
:100ED000F0BD0000002C014000340140000400403F
:100EE00000080040000C0040F0B5048C24F480544D
:100EF0000484868B048C4FF6FF7505EA013726F4CF
:100F0000734605EA0222324305EA03331343104ACB
:100F100090420ED00F4A90420BD0B0F1804F08D0D3
:100F20000D4A904205D00D4A904202D00C4A9042A0
:100F300005D124F40051394341F4805104E024F4F4
:100F400002420A4342F4805183830184F0BD0000D1
:100F5000002C014000340140000400400008004023
:100F6000000C00402DE9F047DFF870900121484661
:100F700000F094F81A4EDFF86C804FF4804500289A
:100F800029D0D8F80040641CC8F800401648007802
:100F9000FFF73AF9154F3946FFF7F8F83946FFF7EA
:100FA000C3F807462046FFF72FF93946FFF732F915
:100FB00001D8756109E0D8F80000642801D83561CE
:100FC00003E00120C8F8000075614846BDE8F0471D
:100FD000012100F02DB8BDE8F0870000002C014091
:100FE0000010014014000020200000200000C84232
:100FF00010B5084C0121204600F050F8002807D019
:10100000FFF762FC2046BDE81040012100F010B857
:1010100010BD000000040040002904D0018841F008
:10102000800101807047018821F0800101807047B4
:10103000C94301827047002904D0018841F00101B1
:1010400001807047018821F001010180704700296B
:1010500005D030F8441F41F400410180704730F85A
:10106000441FC1F30E010180704770B50589048BE0
:10107000068C25F007050D434FF6FC410C4040F26D
:1010800001110C4326F022064FF6FF7101EA03110D
:101090001143314305810483018470BD0246002061
:1010A000138A0B4092890A40002B02D0002A00D0FC
:1010B0000120704770B505460C461D48854209D091
:1010C0001C48854206D0B5F1804F03D01A488542AE
:1010D00000D01A4820886188A288238960B104283A
:1010E00013D008281AD02846FFF7FEFEE1882846CC
:1010F000BDE8704000F020B92846FFF741FEE188C6
:101100002846BDE8704000F0FBB82846FFF772FEA5
:10111000E1882846BDE8704000F0FAB82846FFF79D
:10112000A7FEE1882846BDE8704000F0FDB8000049
:10113000002C014000340140000400400008004041
:1011400000210180418001228280C180018170479D
:10115000002A03D082890A438281704782898A43A8
:1011600082817047018921F00701018170470000E9
:1011700030B5028C22F001020284028C8388048B39
:1011800024F0700424F003050C882C4322F00202A2
:101190000D8915434A882A43124DA8420BD0124D9F
:1011A000A84208D0114DA84205D0114DA84202D046
:1011B000104DA8420FD122F008054A892A4322F097
:1011C00004058A882A4323F4807323F400738D89ED
:1011D0001D43CB892B4383800483C9888186028485
:1011E00030BD0000002C01400034014000400140AF
:1011F0000044014000480140028B22F008020A43EB
:101200000283704770B5028C22F480520284058CF0
:101210008288838B23F4E04323F440760C884FF6D6
:10122000FF7303EA0424344325F400550E8903EACE
:1012300006362E434D8803EA05353543094EB04244
:1012400002D0094EB04205D122F480468A8903EAD1
:101250008212324382808483C988A0F840100584BA
:1012600070BD0000002C014000340140828B22F44C
:1012700000624FF6FF7303EA012111438183704737
:101280000021018041808180C18001814181818173
:10129000C18170473EB501210220FFF765FC124C69
:1012A0002046FFF75FFF684600F0A0F842F20F719A
:1012B000ADF804104721ADF800100021ADF8021080
:1012C0008DF808106946204600F042F801212046BA
:1012D000FFF7AEFE012211462046FFF739FF20211D
:1012E000204600F003F83EBD00040040828822F052
:1012F0007002828082880A438280704781847047AE
:10130000028B22F00C020283028B0A430283704795
:10131000028B22F440620283028B4FF6FF7303EAD2
:1013200001210A4302837047828B22F00C028283E0
:10133000828B0A4382837047828B22F440628283CD
:10134000828B4FF6FF7303EA01210A4382837047C1
:1013500030B502881B4C1C4DA0420DD0A8420BD0CA
:10136000B0F1804F08D0194B984205D0184B9842E5
:1013700002D0184B984203D122F070034A881A43D6
:10138000154B984206D0154B984203D022F4407377
:10139000CA881A4302808A8882850A880285A04208
:1013A0000AD0A84208D00E4A904205D00D4A904279
:1013B00002D00D4A904201D1097A01860121818231
:1013C00030BD0000002C014000340140000400400A
:1013D00000080040000C00400010004000140040D5
:1013E0000040014000440140004801404FF6FF71B9
:1013F000818000210180C18041800172704700001E
:1014000010B500F02FF800F009F8BDE810400121F8
:10141000014800F045B800000038014038B501210E
:101420000420FFF7AFFB6846FFF72BFA4FF400707C
:10143000ADF8000018208DF8030003208DF802009D
:10144000074C69462046FFF7C7F92115ADF8001093
:1014500004218DF8031069462046FFF7BDF938BD19
:10146000000801401FB501218803FFF78BFB684688
:1014700000F080F84FF4E13000900020ADF8040057
:10148000ADF80600ADF80800ADF80C000C20ADF882
:101490000A006946014800F00FF81FBD00380140FE
:1014A000002904D0818941F40051818170478189EC
:1014B00021F400518181704730B585B004460D4656
:1014C000208A4CF6FF710840E98801432182A089F7
:1014D0004EF6F3110840A9882A8911436A8902430C
:1014E0001143A181A08A4FF6FF410840A989014319
:1014F000A1826846FFF754FB1D48844201D103983E
:1015000000E00298A189090408D500EBC00101EBB5
:10151000001029684900B0FBF1F007E000EBC001C2
:1015200001EB001029688900B0FBF1F06422B0FBE8
:10153000F2F109010B096FF018056B4300EB830012
:10154000A3891D044FF0320307D503EBC000B0FBA5
:10155000F2F000F00700084306E003EB0010B0FBD8
:10156000F2F000F00F000843208105B030BD00000C
:10157000003801404FF41651016000218180C18084
:1015800001810C22428181817047FEE702E008C898
:10159000121F08C1002AFAD170477047002001E0ED
:1015A00001C1121F002AFBD170474FF44070FFF7B2
:1015B000B7FAFEF78FFFFFF723FFFEF78BFEFFF76B
:1015C0008BF9FFF74AFAFFF79DF80220FEF7ACFF10
:1015D0000128FAD10220FEF78DFFFFF713F8F4E798
:1015E0000016000800000020240000008C150008F0
:1015F0002416000824000020040400009C150008A4
:1016000002040608000000000102030401020304B2
:1016100006070809000000000000000000000000AC
:0416200000000000C6
:04000005080000ED02
:00000001FF
