:020000040800F2
:100000001804002005010008370200082302000838
:100010003502000869010008E70700080000000039
:10002000000000000000000000000000BD03000808
:100030006B01000800000000D502000875040008EC
:100040001F0100081F0100081F0100081F01000810
:100050001F0100081F0100081F0100081F01000800
:100060001F0100081F0100081F0100081F010008F0
:100070001F0100081F0100081F0100081F010008E0
:100080001F0100081F0100081F0100081F010008D0
:100090001F0100081F0100081F0100081F010008C0
:1000A0001F0100081F0100081F0100081F010008B0
:1000B0001F010008C90400081F0100081F010008F3
:1000C0001F0100081F0100081F0100081F01000890
:1000D0001F0100081F0100081F0100081F01000880
:1000E0001F0100081F0100081F010008DFF810D0E1
:1000F00000F01AF80048004707080008AFF3008036
:10010000180400200648804706480047FEE7FEE73F
:10011000FEE7FEE7FEE7FEE7FEE7FEE7FEE7FEE7B7
:1001200079040008ED000008064C074D06E0E06881
:1001300040F0010394E8070098471034AC42F6D32E
:10014000FFF7D8FF180800083808000810B500F0BD
:10015000F9F900F071F8BDE810400121014800F004
:10016000CAB9000000040040FEE770472DE9F041E5
:100170000022CC7804F00F03E40601D58C782343E9
:100180000C784FF00F0714F0FF0F4FF0010C1CD04C
:1001900005680CFA02F40E882640A64211D196009A
:1001A00007FA06F825EA080503FA06F848EA0505FD
:1001B000CE78282E02D0482E02D002E0446100E022
:1001C0000461521C082AE4D305600A88FF2A1ED95C
:1001D0004568002202F108060CFA06F40E88264053
:1001E000A64210D1960007FA06F825EA080503FA98
:1001F00006F848EA0505CE78282E00D14461CE786D
:10020000482E00D10461521C082AE3D34560BDE8A2
:10021000F0814FF6FF710180022181700421C170CD
:100220007047FEE702480168491C01607047000002
:1002300014000020FEE7704708B5002000901D2143
:100240008DF800100F218DF801108DF802000120AB
:100250008DF80300684600F001F808BD70B50F2363
:10026000C27801260178002A1ED0144A126802F4CE
:10027000E062C2F5E062120AC2F10404D34045789C
:10028000A54082781A402A43120101F1E02181F849
:100290000024007800F01F018E404009800000F12A
:1002A000E020C0F8006170BD01F01F0086404809E1
:1002B000800000F1E020C0F8806170BD0CED00E02E
:1002C0000249084302490860704700000000FA052F
:1002D0000CED00E070470000054A002903D0D16909
:1002E0000143D1617047D1698143D16170470000FA
:1002F00000100240054A002903D091690143916131
:10030000704791698143916170470000001002407D
:1003100010B5264A516801F00C01254B002927D061
:10032000042927D0082927D00360516801F0F00183
:100330000909204B5C5C0168E1404160546804F4A9
:10034000E064240A1C5D21FA04F48460546804F417
:100350006054E40A1B5DD940C160526802F4404217
:10036000920B144B1B1F9A5CB1FBF2F1016110BDA3
:100370000360DAE70360D8E7516801F4701153684D
:1003800003F48033022404EB914133B153689B039F
:1003900007D5094B59430160C7E7074B5943016033
:1003A000C3E7034B59430160BFE700000010024060
:1003B00000127A000400002000093D00704700F0A0
:1003C00001B800000CB50022019200922748016894
:1003D00041F4803101604FF4A063016801F4003101
:1003E00000910199491C0191009911B90199994213
:1003F000F3D10168890302D50121009100E0009248
:100400000099012930D11A490A6842F010020A60A5
:100410000A6822F003020A600A6842F002020A60D7
:100420004168416041684160416841F480614160D8
:10043000416821F47C114160416841F4E811416058
:10044000016841F08071016001688901FCD5416853
:1004500021F003014160416841F0020141604168BF
:10046000C1F381010229FAD10CBD00000010024045
:10047000002002407047000010B50F48016841F0AD
:100480000101016041680D4A1140416001680C4A58
:1004900011400160016821F480210160416821F46C
:1004A000FE0141604FF41F018160FFF788FF05499D
:1004B0004FF00060086010BD001002400000FFF81F
:1004C000FFFFF6FE08ED00E010B5084C01212046C4
:1004D00000F01DF8002807D0FFF7A4FE2046BDE875
:1004E0001040012100F004B810BD000000040040DD
:1004F000C94301827047002904D0018841F00101FD
:1005000001807047018821F0010101807047024697
:100510000020138A0B4092890A40002B02D0002A47
:1005200000D001207047002A03D082890A438281CB
:10053000704782898A4382817047018921F00701CF
:10054000018170473EB501210220FFF7C5FE124C24
:100550002046FFF7F2FF684600F076F842F20F718E
:10056000ADF804104721ADF800100021ADF80210DD
:100570008DF808106946204600F018F80121204641
:10058000FFF7B6FF012211462046FFF7CCFF2021DE
:10059000204600F003F83EBD00040040828822F0AF
:1005A0007002828082880A438280704730B5028858
:1005B0001B4C1C4DA0420DD0A8420BD0B0F1804F77
:1005C00008D0194B984205D0184B984202D0184BCE
:1005D000984203D122F070034A881A43154B98427F
:1005E00006D0154B984203D022F44073CA881A43B0
:1005F00002808A8882850A880285A0420AD0A842A1
:1006000008D00E4A904205D00D4A904202D00D4AC1
:10061000904201D1097A01860121818230BD00001A
:10062000002C01400034014000040040000800405C
:10063000000C004000100040001400400040014049
:1006400000440140004801404FF6FF7181800021C5
:100650000180C180418001727047000010B500F038
:100660002FF800F009F8BDE810400121014800F022
:1006700045B800000038014038B501210420FFF7DB
:1006800039FE6846FFF7C5FD4FF40070ADF8000075
:1006900018208DF8030003208DF80200074C6946EE
:1006A0002046FFF763FD2115ADF8001004218DF8F9
:1006B000031069462046FFF759FD38BD0008014088
:1006C0001FB501218803FFF715FE684600F080F88A
:1006D0004FF4E13000900020ADF80400ADF80600C2
:1006E000ADF80800ADF80C000C20ADF80A00694622
:1006F000014800F00FF81FBD00380140002904D068
:10070000818941F4005181817047818921F4005130
:100710008181704730B585B004460D46208A4CF67D
:10072000FF710840E98801432182A0894EF6F31148
:100730000840A9882A8911436A8902431143A1818B
:10074000A08A4FF6FF410840A9890143A18268466B
:10075000FFF7DEFD1D48844201D1039800E00298B6
:10076000A189090408D500EBC00101EB001029683C
:100770004900B0FBF1F007E000EBC00101EB001015
:1007800029688900B0FBF1F06422B0FBF2F10901A5
:100790000B096FF018056B4300EB8300A3891D0460
:1007A0004FF0320307D503EBC000B0FBF2F000F0CE
:1007B0000700084306E003EB0010B0FBF2F000F086
:1007C0000F000843208105B030BD00000038014013
:1007D0004FF41651016000218180C18001810C22FB
:1007E000428181817047FEE702E008C8121F08C1FC
:1007F000002AFAD170477047002001E001C1121FA2
:10080000002AFBD170474FF44070FFF759FDFFF706
:100810009DFCFFF723FFFEE73808000800000020DA
:1008200018000000E8070008500800081800002021
:1008300000040000F8070008020406080000000099
:100840000102030401020304060708090000000076
:04000005080000ED02
:00000001FF
