:020000040800F2
:10000000280400200501000861090008B107000864
:1000100049090008F10400087311000800000000FD
:10002000000000000000000000000000650B000858
:100030000306000800000000250A00081D0C000847
:100040001F0100081F0100081F0100081F01000810
:100050001F0100081F0100081F0100081F01000800
:100060001F0100081F0100081F0100081F010008F0
:100070001F0100081F0100081F0100081F010008E0
:100080001F0100081F0100081F0100081F010008D0
:100090001F0100081F0100081F0100081F010008C0
:1000A0001F010008710C00081F0100081F01000853
:1000B0001F010008FD0C00081F0100081F010008B7
:1000C0001F0100081F0100081F0100081F01000890
:1000D0001F0100081F0100081F0100081F01000880
:1000E0001F0100081F0100081F010008DFF810D0E1
:1000F00000F0D2F80048004793110008AFF30080E9
:10010000280400200648804706480047FEE7FEE72F
:10011000FEE7FEE7FEE7FEE7FEE7FEE7FEE7FEE7B7
:10012000210C0008ED00000880EA010210B502F081
:100130000043400022D04A001FD0010E01EB1261A3
:10014000C0F35600C2F3560240F4000042F400022D
:10015000A0FB022000047F39140400D0401C50EAA8
:10016000124001D44000491EC2B20C0604EBD0106C
:10017000401C4008802A02D003E0002010BD20F07F
:100180000100002900DA0020184310BD30B480EAD5
:10019000010202F0004530F0004221F0004013D08F
:1001A00090B1C30DD40DC2F31601C0F31600E41ACA
:1001B00041F4000140F400027D34914201D3641CFB
:1001C00000E04900002C02DA30BC002070474FF4F8
:1001D00000000023914201D3891A034340084FEAEB
:1001E0004101F7D151B1914202D14FF0004105E0F8
:1001F00002D24FF0010101E06FF0010103EBC450A6
:10020000284430BC00F010B896230022114600F0BC
:1002100014B80000002801DBC0F10040002901DB18
:10022000C1F10041814270470029A8BF7047401CBE
:10023000490008BF20F00100704710B4B0FA80FCFC
:1002400000FA0CF050EA010404BF10BC704749B139
:10025000CCF1200421FA04F411FA0CF118BF0121A9
:1002600021430843A3EB0C01CB1D4FEA00614FEA89
:10027000102042BF002010BC704700EBC350104458
:100280000029A4BF10BC7047401C490008BF20F0E3
:10029000010010BC70470000064C074D06E0E06806
:1002A00040F0010394E8070098471034AC42F6D3BD
:1002B000FFF720FFC4110008E4110008002904D052
:1002C000816841F0010181607047816821F001017E
:1002D0008160704710B500F07DF800F033F800F051
:1002E00053F90B4C01212046FFF7E8FF204600F0B0
:1002F000DDF8204600F043F80028FAD1204600F04F
:10030000DAF8204600F034F80028FAD110BD0000D9
:1003100000240140002904D0816841F4807181608B
:100320007047816821F4807181607047002904D092
:10033000816841F4801181607047816821F48011E7
:100340008160704708B50121082000F093FB6846E2
:1003500000F00DFA0120ADF8000000208DF8030038
:100360006946024800F0AEF908BD0000000C0140EB
:10037000014600208968490700D5012070470146E1
:1003800000208968090700D50120704710B5426830
:100390000E4B1A400C790B6842EA04221343436067
:1003A00082680B4B1A40D1E9024323434C7942EA5D
:1003B000440213438360C26A22F47002097C491E1E
:1003C000C9B242EA0151C16210BD0000FFFEF0FF58
:1003D000FDF7F1FF10B586B00121480200F04AFB9D
:1003E0004FF4404000F020FB01A800F069F8002025
:1003F00001908DF808008DF809004FF40021039159
:10040000049001208DF814000A4C01A92046FFF742
:10041000BDFF01212046FFF789FF002301220821AB
:10042000204600F009F801212046FFF773FF06B0CF
:1004300010BD00000024014070B5072609290AD923
:10044000C568A1F10A0404EB4404A640B543A340E7
:100450001D43C56007E0056901EB4104A640B543B3
:10046000A3401D4305611F23072A09D2446B521E76
:1004700002EB820293409C4391400C43446370BD65
:100480000D2A09D2046BD21F02EB820293409C43D7
:1004900091400C43046370BDC46A0D3A02EB8202C2
:1004A00093409C4391400C43C46270BD816841F00D
:1004B000080181607047816841F0040181607047E4
:1004C00000210160017141718160C16001210174ED
:1004D0007047000010B500F0FBFC00F042FABDE8E8
:1004E00010400121014800F02CBC00000004004035
:1004F000FEE70000C10002D50249086070470249CA
:10050000486070470404024000000240002904D003
:10051000016841F001010160704701684FF6FE7209
:10052000114001607047000002460020D10002D552
:100530000449096801E004490968114200D001201A
:1005400070470000000402400000024030B502681D
:1005500047F6F0739A430C6A8B682343D1E904454C
:100560002C4323438C692343CC6923434C6A2343A4
:100570008C6A234313430360CA6842600A6882603E
:100580004968C16030BD000010B58CB0012108463B
:1005900000F054FA01A800F027F810480190104824
:1005A0000290002003900121049105900690090219
:1005B0000791890008912021099109020A910B9065
:1005C000084C01A92046FFF7C1FF0220FFF792FF68
:1005D00001212046FFF79AFF0CB010BD4C240140CA
:1005E0001800002008000240002101604160816085
:1005F000C160016141618161C161016241628162E9
:100600007047704710B500F0BBF82849264A274BC1
:100610000C3190420DDC264A4FF48040106108886E
:10062000C00740D00022BDE810400121184600F06C
:10063000AEBB204C204AA0420BDC1420107008886E
:10064000C00730D10122BDE810401146184600F025
:100650009EBB1A4CA0420BDA322010700888C007EB
:1006600021D10122BDE810401146184600F08FBB91
:10067000134CA0420BDA4B2010700888C00712D12F
:100680000122BDE810401146184600F080BB6420EE
:1006900010700888C00706D10122BDE8104011463D
:1006A000184600F074BB10BD0000D040002C014083
:1006B000001001400000E04020000020CDCCEC40C4
:1006C000CDCCFC402DE9F0410022CC7804F00F03A2
:1006D000E40601D58C7823430C784FF00F0714F013
:1006E000FF0F4FF0010C1CD005680CFA02F40E88C5
:1006F0002640A64211D1960007FA06F825EA080519
:1007000003FA06F848EA0505CE78282E02D0482ECE
:1007100002D002E0446100E00461521C082AE4D3E4
:1007200005600A88FF2A1ED94568002202F10806E2
:100730000CFA06F40E882640A64210D1960007FA5D
:1007400006F825EA080503FA06F848EA0505CE7812
:10075000282E00D14461CE78482E00D10461521C6D
:10076000082AE3D34560BDE8F081016170474FF688
:10077000FF710180022181700421C1707047000067
:1007800010B507480088FFF73FFD0649FFF7FEFC5C
:100790000549FFF7C9FCBDE810400449FFF7C4BC98
:1007A0001800002000F07F453333534000003041F3
:1007B000FEE7000002480168491C01607047000024
:1007C0001C00002038B50121102000F053F9002052
:1007D00000F0B4F96846FFF7CAFF4FF48044ADF863
:1007E000004010208DF8030002208DF80200054D16
:1007F00069462846FFF766FF21462846FFF7B5FF02
:1008000038BD00000010014038B50121082000F07B
:1008100031F96846FFF7ABFF10208DF80300032085
:100820008DF802004FF48040ADF800000D4C694691
:100830002046FFF747FF4FF40041ADF8001069462E
:100840002046FFF73FFF6114ADF8001069462046CF
:10085000FFF738FFA114ADF8001069462046FFF7F6
:1008600031FF38BD000C0140F8B50121042000F033
:1008700001F96846FFF77BFF4FF48070ADF8000088
:1008800018258DF8035003248DF80240084E694660
:100890003046FFF717FFF114ADF800108DF8035044
:1008A0008DF8024069463046FFF70CFFF8BD0000A6
:1008B0000008014030B587B00121C80200F0DAF825
:1008C000204D284600F06DFA04A800F083FB40F6A6
:1008D0000F60ADF814000024ADF81040ADF81240E0
:1008E00004A9284600F028FB684600F0E7FA6021DA
:1008F000ADF800100120ADF80200ADF80640ADF8EB
:100900000840ADF80C406946284600F04FFA08212F
:10091000284600F08FFA6946284600F091FA08212F
:10092000284600F0C1FA0121284600F016FA0121FC
:10093000284600F0F7F90121284600F002FA07B036
:1009400030BD0000002C0140FEE710B5FFF7B2FFFC
:10095000FFF78AFF00F017F8BDE81040FFF754BF1B
:10096000704708B5002000901D218DF800100F2160
:100970008DF801108DF8020001208DF80300684603
:1009800000F014F808BD08B50020009019218DF87A
:1009900000100F218DF801108DF8020001208DF854
:1009A0000300684600F002F808BD000070B50F2390
:1009B000C27801260178002A1ED0144A126802F477
:1009C000E062C2F5E062120AC2F10404D340457845
:1009D000A54082781A402A43120101F1E02181F8F2
:1009E0000024007800F01F018E404009800000F1D3
:1009F000E020C0F8006170BD01F01F00864048098A
:100A0000800000F1E020C0F8806170BD0CED00E0D6
:100A10000249084302490860704700000000FA05D7
:100A20000CED00E070470000034A516821F440419A
:100A3000014351607047000000100240054A002940
:100A400003D051690143516170475169814351613C
:100A50007047000000100240054A002903D0D16908
:100A60000143D1617047D1698143D1617047000072
:100A700000100240054A002903D0916901439161A9
:100A800070479169814391617047000000100240F6
:100A900010B5264A516801F00C01254B002927D0DA
:100AA000042927D0082927D00360516801F0F001FC
:100AB0000909204B5C5C0168E1404160546804F422
:100AC000E064240A1C5D21FA04F48460546804F490
:100AD0006054E40A1B5DD940C160526802F4404290
:100AE000920B144B1B1F9A5CB1FBF2F1016110BD1C
:100AF0000360DAE70360D8E7516801F470115368C6
:100B000003F48033022404EB914133B153689B0317
:100B100007D5094B59430160C7E7074B59430160AB
:100B2000C3E7034B59430160BFE7000000100240D8
:100B300000127A000400002000093D00084900224C
:100B40000A7001F82029012805D0042802D10520C7
:100B500081F820007047012081F8200070470000D4
:100B600020100240704700F001B800000CB50022D0
:100B7000019200922748016841F4803101604FF4EE
:100B8000A063016801F4003100910199491C0191B1
:100B9000009911B901999942F3D10168890302D5ED
:100BA0000121009100E000920099012930D11A49F9
:100BB0000A6842F010020A600A6822F003020A6022
:100BC0000A6842F002020A6041684160416841607F
:100BD000416841F480614160416821F47C114160C9
:100BE000416841F4E8114160016841F080710160A1
:100BF00001688901FCD5416821F003014160416829
:100C000041F0020141604168C1F381010229FAD13A
:100C10000CBD0000001002400020024070470000A0
:100C200010B50F48016841F00101016041680D4AAB
:100C30001140416001680C4A11400160016821F4D3
:100C400080210160416821F4FE0141604FF41F01E1
:100C50008160FFF788FF05494FF00060086010BD14
:100C6000001002400000FFF8FFFFF6FE08ED00E074
:100C70002DE9F047DFF870900121484600F07BF83D
:100C80001A4EDFF86C804FF48045002829D0D8F840
:100C90000040641CC8F8004016480078FFF7B4FA1A
:100CA000154F3946FFF772FA3946FFF73DFA074606
:100CB0002046FFF7A9FA3946FFF7ACFA01D875616B
:100CC00009E0D8F80000642801D8356103E001206C
:100CD000C8F8000075614846BDE8F047012100F002
:100CE0002DB8BDE8F0870000002C01400010014045
:100CF00014000020200000200000C84210B5084C5D
:100D00000121204600F037F8002807D0FFF752FDF8
:100D10002046BDE81040012100F010B810BD0000D1
:100D200000040040002904D0018841F080010180C6
:100D30007047018821F0800101807047C94301821A
:100D40007047002904D0018841F0010101807047FB
:100D5000018821F0010101807047002905D030F899
:100D6000441F41F400410180704730F8441FC1F333
:100D70000E010180704702460020138A0B409289C1
:100D80000A40002B02D0002A00D001207047002A20
:100D900003D082890A438281704782898A43828193
:100DA0007047018921F007010181704730B5028C3D
:100DB00022F001020284028C8388048B24F07004E8
:100DC00024F003050C882C4322F002020D89154300
:100DD0004A882A43124DA8420BD0124DA84208D08F
:100DE000114DA84205D0114DA84202D0104DA84285
:100DF0000FD122F008054A892A4322F004058A8887
:100E00002A4323F4807323F400738D891D43CB8917
:100E10002B4383800483C9888186028430BD00000F
:100E2000002C0140003401400040014000440140DA
:100E300000480140028B22F008020A4302837047F7
:100E400070B5028C22F480520284058C8288838BD8
:100E500023F4E04323F440760C884FF6FF7303EA53
:100E60000424344325F400550E8903EA06362E4344
:100E70004D8803EA05353543094EB04202D0094E8C
:100E8000B04205D122F480468A8903EA82123243B5
:100E900082808483C988A0F84010058470BD00005A
:100EA000002C014000340140828B22F400624FF696
:100EB000FF7303EA01211143818370470021018000
:100EC00041808180C180018141818181C1817047E0
:100ED0003EB501210220FFF7BFFD124C2046FFF76F
:100EE00060FF684600F076F842F20F71ADF804102A
:100EF0004721ADF800100021ADF802108DF8081060
:100F00006946204600F018F801212046FFF716FF39
:100F1000012211462046FFF73AFF2021204600F02B
:100F200003F83EBD00040040828822F070028280F7
:100F300082880A438280704730B502881B4C1C4D62
:100F4000A0420DD0A8420BD0B0F1804F08D0194B71
:100F5000984205D0184B984202D0184B984203D1C2
:100F600022F070034A881A43154B984206D0154B5D
:100F7000984203D022F44073CA881A4302808A88B8
:100F800082850A880285A0420AD0A84208D00E4A6B
:100F9000904205D00D4A904202D00D4A904201D1B4
:100FA000097A01860121818230BD0000002C0140B8
:100FB000003401400004004000080040000C0040E4
:100FC0000010004000140040004001400044014077
:100FD000004801404FF6FF71818000210180C180EF
:100FE000418001727047000010B500F02FF800F04A
:100FF00009F8BDE810400121014800F045B80000A3
:101000000038014038B501210420FFF733FD684660
:10101000FFF7ADFB4FF40070ADF8000018208DF81D
:10102000030003208DF80200074C69462046FFF7B5
:1010300049FB2115ADF8001004218DF80310694615
:101040002046FFF73FFB38BD000801401FB50121D6
:101050008803FFF70FFD684600F080F84FF4E13099
:1010600000900020ADF80400ADF80600ADF80800CF
:10107000ADF80C000C20ADF80A006946014800F0FC
:101080000FF81FBD00380140002904D0818941F4C8
:10109000005181817047818921F40051818170471D
:1010A00030B585B004460D46208A4CF6FF710840E5
:1010B000E98801432182A0894EF6F3110840A988EE
:1010C0002A8911436A8902431143A181A08A4FF6FC
:1010D000FF410840A9890143A1826846FFF7D8FC77
:1010E0001D48844201D1039800E00298A1890904B7
:1010F00008D500EBC00101EB001029684900B0FBE6
:10110000F1F007E000EBC00101EB00102968890055
:10111000B0FBF1F06422B0FBF2F109010B096FF0B2
:1011200018056B4300EB8300A3891D044FF03203C5
:1011300007D503EBC000B0FBF2F000F00700084356
:1011400006E003EB0010B0FBF2F000F00F000843E4
:10115000208105B030BD0000003801404FF4165129
:10116000016000218180C18001810C224281818146
:101170007047FEE702E008C8121F08C1002AFAD132
:1011800070477047002001E001C1121F002AFBD107
:1011900070474FF44070FFF73BFCFFF79BF9FFF7F8
:1011A00023FFFFF797F8FFF70DFBFFF7CEFB0220B9
:1011B000FFF7BAF90128FAD10220FFF79BF9FFF7F0
:1011C00021FAF4E7E41100080000002024000000E8
:1011D0007411000808120008240000200404000014
:1011E0008411000802040608000000000102030444
:1011F00001020304060708090000000000000000C7
:081200000000000000000000E6
:04000005080000ED02
:00000001FF
